:100000000C942A000C9433090C9466090C9476091C
:100010000C9447000C9447000C9447000C94470044
:100020000C9447000C9447000C9447000C94470034
:100030000C9447000C9447000C9447000C94470024
:100040000C9447000C9447000C9447000C94470014
:100050000C94470011241FBECFE5D8E0DEBFCDBF12
:1000600011E0A0E6B0E0E6EDFFE102C005900D92E0
:10007000AA36B107D9F711E0AAE6B1E001C01D9296
:10008000AF36B107E1F70E942D0F0C94E90F0C94E5
:100090000000EF92FF920F931F937B018C0120E0F1
:1000A00030E040E05FE40E94C50388238CF0C80183
:1000B000B70120E030E040E05FE40E94C1010E940F
:1000C00025049B01AC01205030404040504806C000
:1000D000C801B7010E9425049B01AC01B901CA0106
:1000E0001F910F91FF90EF900895A0E0B0E0EBE733
:1000F000F0E00C94360FDC012B01FA019C91923058
:1001000008F439C1EB018881823008F433C194309E
:1001100069F4843009F02FC111969C91119789815F
:10012000981709F428C1A0E6B0E025C1843009F48D
:1001300021C18230A9F4923009F01DC19A01AD01AC
:1001400088E0EA010990AE01E90109929E0181501F
:10015000C1F7E201898111969C918923818308C1AD
:10016000923009F407C112962D903C901397EB0141
:100170008A819B811496AD90BD90CD90DC901797AD
:10018000EC80FD800E811F819101281B390BB90184
:1001900037FF04C066277727621B730B6032710537
:1001A0000CF061C0121613066CF537014801062EDB
:1001B00004C096948794779467940A94D2F721E0C8
:1001C00030E040E050E004C0220F331F441F551FB1
:1001D0006A95D2F721503040404050402E213F21B7
:1001E00040235123211531054105510521F021E01E
:1001F00030E040E050E079018A01E628F72808293C
:1002000019293CC0232BD1F1260E371E350146019A
:10021000062E04C096948794779467940A94D2F734
:1002200021E030E040E050E004C0220F331F441FC3
:10023000551F6A95D2F721503040404050402A2146
:100240003B214C215D21211531054105510521F04E
:1002500021E030E040E050E059016A01A628B728CB
:10026000C828D9280BC0821593052CF01C01AA249C
:10027000BB24650103C0EE24FF24870111969C91E5
:10028000D20111968C91981709F445C0992339F041
:10029000A80197012A193B094C095D0906C0A6016E
:1002A00095012E193F09400B510B57FD08C01182D3
:1002B0003382228224833583468357831DC081E0A5
:1002C00081833382228288279927DC01821B930B4A
:1002D000A40BB50B84839583A683B7830DC0220F2F
:1002E000331F441F551F24833583468357838281E0
:1002F000938101979383828324813581468157813D
:10030000DA01C9010197A109B1098F5F9F4FAF4F72
:10031000BF4328F30BC0918333822282EA0CFB1C7B
:100320000C1D1D1DE482F5820683178383E0808304
:10033000248135814681578157FF1AC0C901AA27F8
:1003400097FDA095BA2F81709070A070B0705695EF
:10035000479537952795822B932BA42BB52B848318
:100360009583A683B7838281938101969383828349
:10037000DF0101C0D201CD01CDB7DEB7E2E10C94BF
:10038000520FA0E2B0E0E7ECF1E00C94420F698379
:100390007A838B839C832D833E834F835887E9E048
:1003A000EE2EF12CEC0EFD1ECE010196B7010E943F
:1003B00016068E010F5E1F4FCE010596B8010E94F2
:1003C00016068A8991E089278A8BC701B801AE0198
:1003D000475E5F4F0E9475000E944105A096E6E0CF
:1003E0000C945E0FA0E2B0E0E8EFF1E00C94420F55
:1003F00069837A838B839C832D833E834F835887C5
:10040000F9E0EF2EF12CEC0EFD1ECE010196B701A6
:100410000E9416068E010F5E1F4FCE010596B80191
:100420000E941606C701B801AE01475E5F4F0E94E9
:1004300075000E944105A096E6E00C945E0FA0E2D4
:10044000B0E0E5E2F2E00C94360F69837A838B83A7
:100450009C832D833E834F835887CE010196BE0136
:10046000675F7F4F0E941606CE010596BE016F5E44
:100470007F4F0E9416069985923088F089898230D4
:10048000C8F0943019F4823051F404C0843029F457
:10049000923081F480E690E0C6C0923049F420E0CA
:1004A0009A858A89981321E02A87CE010996BBC0D4
:1004B000823049F420E09A858A89981321E02A8BBA
:1004C000CE014196B0C02D843E844F8458886D88FB
:1004D0007E888F88988CEE24FF248701AA24BB2471
:1004E000650140E050E060E070E0E0E0F0E0C10174
:1004F00081709070892BE9F0E60CF71C081D191D1E
:100500009A01AB012A0D3B1D4C1D5D1D80E090E062
:10051000A0E0B0E0E614F7040805190520F481E036
:1005200090E0A0E0B0E0BA01A901480F591F6A1F8E
:100530007B1FAA0CBB1CCC1CDD1C97FE08C081E0F5
:1005400090E0A0E0B0E0A82AB92ACA2ADB2A3196B6
:10055000E032F10549F0660C771C881C991C569412
:10056000479437942794C3CFFA85EA892B893C892D
:100570008B859C85280F391F2E5F3F4F17C0CA01FE
:1005800081709070892B61F016950795F794E79428
:1005900080E090E0A0E0B0E8E82AF92A0A2B1B2BC3
:1005A00076956795579547952F5F3F4F77FDE7CF36
:1005B0000CC0440F551F661F771F17FD4160EE0CDE
:1005C000FF1C001F111F21503040403090E05907A0
:1005D00090E0690790E4790760F32B8F3C8FDB0193
:1005E000CA018F779070A070B07080349105A1051A
:1005F000B10561F447FD0AC0E114F10401051105DC
:1006000029F0405C5F4F6F4F7F4F40781A8EFE1786
:1006100011F081E08A8F4D8F5E8F6F8F78A383E01A
:10062000898FCE0149960E944105A096E2E10C9483
:10063000520FA8E1B0E0EFE1F3E00C943E0F6983C4
:100640007A838B839C832D833E834F835887B9E0C5
:10065000EB2EF12CEC0EFD1ECE010196B7010E948F
:1006600016068E010F5E1F4FCE010596B8010E943F
:1006700016062985223008F47EC03989323010F4FC
:10068000B8017CC08A859A8989278A87243011F02D
:10069000223031F4231709F06EC060E670E06EC0BE
:1006A000343039F41D861E861F86188A1C861B86E8
:1006B00004C0323021F484E08987B7015FC02B8504
:1006C0003C858B899C89281B390B3C872B87ED84C3
:1006D000FE840F851889AD88BE88CF88D88CEA142F
:1006E000FB040C051D0540F4EE0CFF1C001F111F40
:1006F000215030403C872B8720E030E040E050E044
:1007000080E090E0A0E0B0E460E070E0EA14FB0478
:100710000C051D0540F0282B392B4A2B5B2BEA18C2
:10072000FB080C091D09B695A79597958795EE0CC2
:10073000FF1C001F111F6F5F7F4F6F31710531F775
:10074000DA01C9018F779070A070B0708034910584
:10075000A105B10561F427FD0AC0E114F10401050A
:10076000110529F0205C3F4F4F4F5F4F20782D87B8
:100770003E874F87588BBE01675F7F4FCB010E943A
:1007800041056896EAE00C945A0FA8E1B0E0EBEC62
:10079000F3E00C94420F69837A838B839C832D83CF
:1007A0003E834F83588789E0E82EF12CEC0EFD1E26
:1007B000CE010196B7010E9416068E010F5E1F4FF3
:1007C000CE010596B8010E9416068985823040F058
:1007D0008989823028F0C701B8010E948E0601C0C5
:1007E0008FEF6896E6E00C945E0FA8E1B0E0EBEFC7
:1007F000F3E00C94420F69837A838B839C832D836F
:100800003E834F83588789E0E82EF12CEC0EFD1EC5
:10081000CE010196B7010E9416068E010F5E1F4F92
:10082000CE010596B8010E9416068985823040F0F7
:100830008989823028F0C701B8010E948E0601C064
:1008400081E06896E6E00C945E0FACE0B0E0EBE28D
:10085000F4E00C94460F69837A838B839C83CE01EA
:100860000196BE016B5F7F4F0E9416068D8182301C
:1008700061F1823050F1843021F48E81882351F16E
:100880002EC02F81388537FD20C06E812F31310574
:100890001CF06623F9F023C08EE190E0821B930BDD
:1008A00029853A854B855C8504C0569547953795D3
:1008B00027958A95D2F76623B1F0509540953095EB
:1008C00021953F4F4F4F5F4F0EC020E030E040E09A
:1008D00050E009C02FEF3FEF4FEF5FE704C020E08B
:1008E00030E040E050E8B901CA012C96E2E00C94F7
:1008F000620FA8E0B0E0EFE7F4E00C943E0F7B015C
:100900008C01611571058105910519F482E08983D7
:1009100060C083E089838EE1C82ED12CDC82CB823B
:10092000ED82FE820F831887C801B7010E94F2048E
:10093000FC013197F7FF3BC0222733272E1B3F0BCB
:1009400057016801022E04C0D694C794B794A794A7
:100950000A94D2F740E050E060E070E081E090E07F
:10096000A0E0B0E004C0880F991FAA1FBB1F2A9502
:10097000D2F70197A109B1098E219F21A023B123AC
:100980000097A105B10521F041E050E060E070E082
:100990004A295B296C297D294D835E836F83788783
:1009A0008EE190E08E1B9F0B9C838B8312C030974F
:1009B00081F00E2E04C0EE0CFF1C001F111F0A94C4
:1009C000D2F7ED82FE820F831887CE1ADF0ADC820F
:1009D000CB821A82CE0101960E9441052896EAE058
:1009E0000C945A0FEF92FF920F931F937B018C018F
:1009F00080E0E81680E0F80681E0080780E018074C
:100A000088F48FEFE816F1040105110531F028F0A4
:100A100088E090E0A0E0B0E017C080E090E0A0E0C7
:100A2000B0E012C080E0E81680E0F80680E0080739
:100A300081E0180728F088E190E0A0E0B0E004C071
:100A400080E190E0A0E0B0E020E230E040E050E063
:100A5000281B390B4A0B5B0B04C016950795F794BE
:100A6000E7948A95D2F7F701E859FF4F8081281B58
:100A7000310941095109C9011F910F91FF90EF9070
:100A80000895DF92EF92FF920F931F93FC01E48091
:100A9000F58006811781D1808081823048F480E022
:100AA00090E0A0E1B0E0E82AF92A0A2B1B2BA5C0B0
:100AB000843009F49FC0823021F4EE24FF248701A2
:100AC00005C0E114F1040105110519F4E0E0F0E0BE
:100AD00096C0628173819FEF623879070CF05BC02A
:100AE00022E83FEF261B370B2A3131052CF020E09E
:100AF00030E040E050E02AC0B801A701022E04C057
:100B000076956795579547950A94D2F781E090E0DE
:100B1000A0E0B0E004C0880F991FAA1FBB1F2A9550
:100B2000D2F70197A109B1098E219F21A023B123FA
:100B30000097A105B10521F081E090E0A0E0B0E0D0
:100B40009A01AB01282B392B4A2B5B2BDA01C90107
:100B50008F779070A070B07080349105A105B105B9
:100B600039F427FF09C0205C3F4F4F4F5F4F04C04F
:100B7000215C3F4F4F4F5F4FE0E0F0E02030A0E0BE
:100B80003A07A0E04A07A0E45A0710F0E1E0F0E0DD
:100B900079018A0127C06038710564F5FB01E158CD
:100BA000FF4FD801C7018F779070A070B07080346C
:100BB0009105A105B10539F4E7FE0DC080E490E090
:100BC000A0E0B0E004C08FE390E0A0E0B0E0E80E69
:100BD000F91E0A1F1B1F17FF05C016950795F794EE
:100BE000E794319687E016950795F794E7948A95F0
:100BF000D1F705C0EE24FF248701EFEFF0E06E2F60
:100C0000679566276795902F9F77D794DD24D794B3
:100C10008E2F8695492F462B582F5D29B701CA0183
:100C20001F910F91FF90EF90DF900895FC01DB0181
:100C3000408151812281622F6F7770E0221F22272D
:100C4000221F9381892F880F822B282F30E0991F34
:100C50009927991F11969C93119721153105A9F594
:100C6000411551056105710511F482E037C082E834
:100C70009FEF13969C938E9312979A01AB0167E0B6
:100C8000220F331F441F551F6A95D1F783E08C93C1
:100C90000DC0220F331F441F551F12968D919C913A
:100CA0001397019713969C938E931297203080E0B0
:100CB000380780E0480780E4580758F314962D93CE
:100CC0003D934D935C93179708952F3F310579F429
:100CD000411551056105710519F484E08C9308955F
:100CE00064FF03C081E08C9312C01C9210C02F5788
:100CF000304013963C932E93129783E08C9387E0B9
:100D0000440F551F661F771F8A95D1F7706414969C
:100D10004D935D936D937C93179708951F93DC011A
:100D2000FB019C91923008F447C08081823008F426
:100D300043C0943051F411961C91843099F581810F
:100D4000682F70E0611B71093FC0843021F0923040
:100D500031F48230B9F18181882389F12DC0119657
:100D60001C9111978230F1F081811817D9F41296F5
:100D70002D913C911397828193818217930794F070
:100D800028173907BCF014968D919D910D90BC9158
:100D9000A02D2481358146815781281739074A07BC
:100DA0005B0718F4112341F00AC082179307A407C8
:100DB000B50740F4112319F061E070E005C06FEF52
:100DC0007FEF02C060E070E0CB011F910895DF93D8
:100DD000CF930F92CDB7DEB71982E3E5F0E0108232
:100DE00089810F90CF91DF910895EF92FF920F9339
:100DF0001F93DF93CF93CDB7DEB763970FB6F89409
:100E0000DEBF0FBECDBF9B8B8A8B198A19821A82D7
:100E10001B821C828FE692E1A3E8BEE38D839E8352
:100E2000AF83B8876D817E818F81988520E030E027
:100E300040E853E40E941F02DC01CB0189879A87B6
:100E4000AB87BC878A899B89CC01A0E0B0E0BC015C
:100E5000CD010E947904DC01CB01BC01CD012985C3
:100E60003A854B855C850E94F503882354F58A8971
:100E70009B89CC01A0E0B0E0BC01CD010E947904C7
:100E80009B01AC0169857A858B859C850E94C10197
:100E9000DC01CB01BC01CD012D813E814F81588504
:100EA0000E941903DC01CB01BC01CD010E94490065
:100EB000DC01CB019E878D8781E090E0988B8F8746
:100EC00072C069857A858B859C850E942504DC012A
:100ED000CB019C018A899B892817390739F41E8622
:100EE0001D8681E090E0988B8F875DC08A899B8901
:100EF000CC01A0E0B0E0BC01CD010E947904DC018E
:100F0000CB01BC01CD0129853A854B855C850E94CA
:100F10001903DC01CB01BC01CD010E946D0FDC0186
:100F2000CB01BC01CD010E944900DC01CB01988BB3
:100F30008F878A899B89CC01A0E0B0E0BC01CD01FC
:100F40000E947904DC01CB01BC01CD012D813E81E1
:100F50004F8158850E941903DC01CB017C018D0172
:100F60008F859889CC01A0E0B0E0BC01CD010E9442
:100F700079049B01AC01C801B7010E941903DC018F
:100F8000CB019C01AD0160E070E080E893E40E9439
:100F9000C101DC01CB01BC01CD010E944900DC0193
:100FA000CB019E878D87E2E5F0E08D858083A3E508
:100FB000B0E0E3E5F0E0808184608C931BC0E8E55D
:100FC000F0E08081882F90E0817090700097B9F3F5
:100FD000A8E5B0E0E8E5F0E0808181608C9389814C
:100FE0009A81AB81BC810196A11DB11D89839A8331
:100FF000AB83BC838F8598899C0140E050E0898158
:101000009A81AB81BC8182179307A407B507B8F218
:10101000E3E5F0E01082898963960FB6F894DEBFAD
:101020000FBECDBFCF91DF911F910F91FF90EF9039
:101030000895DF93CF93CDB7DEB7AFE5B0E0EFE52E
:10104000F0E0808180688C93CF91DF910895DF93E9
:10105000CF93CDB7DEB7AFE5B0E0EFE5F0E080814C
:101060008F778C93CF91DF910895DF93CF930F9279
:10107000CDB7DEB71982ABE5B0E0EBE5F0E08081FB
:1010800080648C93A5E5B0E0E5E5F0E080818C7F9D
:101090008C93A5E5B0E0E5E5F0E0808182608C937B
:1010A00089810F90CF91DF910895DF93CF9300D086
:1010B00000D00F92CDB7DEB78A836B8319828A8105
:1010C000882309F042C0A5E5B0E0E5E5F0E08081C5
:1010D0008C7F8C938B81282F30E03D832C838C81F7
:1010E0009D8182329105B1F02C813D812332310501
:1010F0005CF48C819D818A309105A1F02C813D8129
:101100002032310551F11EC08C819D8189349105B9
:1011100089F018C0A5E5B0E0E5E5F0E080818160E8
:101120008C931BC0A5E5B0E0E5E5F0E0808182602E
:101130008C9313C0A5E5B0E0E5E5F0E08081836025
:101140008C930BC082E0898308C08A81813029F0AA
:101150008A81823011F082E0898389810F900F901B
:101160000F900F900F90CF91DF910895DF93CF9361
:1011700000D0CDB7DEB78A8319828A81882341F4F3
:10118000ABE5B0E0EBE5F0E0808180648C9318C0C3
:101190008A81813041F4ABE5B0E0EBE5F0E080819D
:1011A00080688C930DC08A81823041F4ABE5B0E059
:1011B000EBE5F0E0808180628C9302C082E089835D
:1011C00089810F900F90CF91DF910895DF93CF9396
:1011D00000D0CDB7DEB78A8319828A81882341F493
:1011E000ABE5B0E0EBE5F0E080818F7B8C9318C03D
:1011F0008A81813041F4ABE5B0E0EBE5F0E080813D
:101200008F778C930DC08A81823041F4ABE5B0E0DA
:10121000EBE5F0E080818F7D8C9302C082E08983D2
:1012200089810F900F90CF91DF910895DF93CF9335
:1012300000D00F92CDB7DEB79A8389836B83898103
:101240009A81009749F08B81882331F489819A81B2
:1012500090936B0180936A0180E00F900F900F9044
:10126000CF91DF9108951F920F920FB60F92112424
:101270002F933F934F935F936F937F938F939F939E
:10128000AF93BF93EF93FF93DF93CF93CDB7DEB7C9
:1012900080916A0190916B01009729F0E0916A01B9
:1012A000F0916B010995CF91DF91FF91EF91BF9183
:1012B000AF919F918F917F916F915F914F913F91EE
:1012C0002F910F900FBE0F901F9018951F920F92A5
:1012D0000FB60F921124DF93CF93CDB7DEB7CF9126
:1012E000DF910F900FBE0F901F9018951F920F92D5
:1012F0000FB60F921124DF93CF93CDB7DEB7CF9106
:10130000DF910F900FBE0F901F901895DF93CF9332
:1013100000D000D000D0CDB7DEB78A836B834C837A
:1013200019828A81843008F0D0C08B81883008F01F
:10133000CCC08C81823008F0C8C08A81282F30E070
:101340003E832D836D817E816130710509F441C03A
:101350008D819E818230910534F42D813E8121154D
:10136000310571F0B0C06D817E816230710509F484
:1013700059C08D819E818330910509F47CC0A3C042
:10138000AAE3B0E0EAE3F0E08081482F8B81282FC8
:1013900030E081E090E002C0880F991F2A95E2F7C3
:1013A000809584238C93AAE3B0E0EAE3F0E08081A7
:1013B000482F8C81282F30E08B81882F90E0B90155
:1013C00002C0660F771F8A95E2F7CB01842B8C93BE
:1013D0007AC0A7E3B0E0E7E3F0E08081482F8B819B
:1013E000282F30E081E090E002C0880F991F2A95F5
:1013F000E2F7809584238C93A7E3B0E0E7E3F0E085
:101400008081482F8C81282F30E08B81882F90E0BD
:10141000B90102C0660F771F8A95E2F7CB01842BD2
:101420008C9351C0A4E3B0E0E4E3F0E08081482F66
:101430008B81282F30E081E090E002C0880F991F57
:101440002A95E2F7809584238C93A4E3B0E0E4E34B
:10145000F0E08081482F8C81282F30E08B81882F0D
:1014600090E0B90102C0660F771F8A95E2F7CB01C1
:10147000842B8C9328C0A1E3B0E0E1E3F0E080810D
:10148000482F8B81282F30E081E090E002C0880F48
:10149000991F2A95E2F7809584238C93A1E3B0E00D
:1014A000E1E3F0E08081482F8C81282F30E08B81B0
:1014B000882F90E0B90102C0660F771F8A95E2F786
:1014C000CB01842B8C93198202C082E089838981AD
:1014D00026960FB6F894DEBF0FBECDBFCF91DF9139
:1014E0000895DF93CF9300D000D000D0CDB7DEB702
:1014F0008A836B834C8319828A81843008F002C10D
:101500008B81883008F0FEC08C81823008F0FAC0F0
:101510008A81282F30E03E832D838D819E8181300A
:10152000910509F44DC02D813E81223031052CF406
:101530008D819E81009771F0E3C02D813E81223024
:10154000310509F473C08D819E818330910509F4C2
:10155000A3C0D6C08C81813019F08C818130A1F478
:10156000ABE3B0E0EBE3F0E08081482F8B81282FE4
:1015700030E081E090E0022E02C0880F991F0A94AB
:10158000E2F7842B8C93BCC08C81882321F08C8162
:10159000882309F0B5C0ABE3B0E0EBE3F0E0808175
:1015A000482F8B81282F30E081E090E0022E02C08E
:1015B000880F991F0A94E2F7809584238C93A0C02A
:1015C0008C81813019F08C818130A1F4A8E3B0E0E6
:1015D000E8E3F0E08081482F8B81282F30E081E024
:1015E00090E0022E02C0880F991F0A94E2F7842B24
:1015F0008C9386C08C81882321F08C81882309F00C
:101600007FC0A8E3B0E0E8E3F0E08081482F8B8161
:10161000282F30E081E090E0022E02C0880F991F51
:101620000A94E2F7809584238C936AC08C81813080
:1016300019F08C818130A1F4A5E3B0E0E5E3F0E09E
:101640008081482F8B81282F30E081E090E0022EAE
:1016500002C0880F991F0A94E2F7842B8C9350C024
:101660008C81882321F08C81882309F049C0A5E36F
:10167000B0E0E5E3F0E08081482F8B81282F30E057
:1016800081E090E0022E02C0880F991F0A94E2F7D1
:10169000809584238C9334C08C81813019F08C81A7
:1016A0008130A1F4A2E3B0E0E2E3F0E08081482FD2
:1016B0008B81282F30E081E090E0022E02C0880F5D
:1016C000991F0A94E2F7842B8C931AC08C8188238B
:1016D00019F08C818823A1F4A2E3B0E0E2E3F0E00A
:1016E0008081482F8B81282F30E081E090E0022E0E
:1016F00002C0880F991F0A94E2F7809584238C9387
:10170000198202C082E08983898126960FB6F894F7
:10171000DEBF0FBECDBFCF91DF910895DF93CF9392
:1017200000D000D00F92CDB7DEB78A836B8381E003
:1017300089838A81843008F074C08B81883008F0F6
:1017400070C08A81282F30E03D832C838C819D815D
:101750008130910549F12C813D81223031052CF4F5
:101760008C819D81009761F05AC02C813D8122308F
:10177000310571F18C819D8183309105E9F14FC074
:10178000ABE3B0E0EBE3F0E08081482F8B81282FC2
:1017900030E081E090E0022E02C0880F991F0A9489
:1017A000E2F784278C933BC0A8E3B0E0E8E3F0E0E5
:1017B0008081482F8B81282F30E081E090E0022E3D
:1017C00002C0880F991F0A94E2F784278C9327C0E0
:1017D000A5E3B0E0E5E3F0E08081482F8B81282F7E
:1017E00030E081E090E0022E02C0880F991F0A9439
:1017F000E2F784278C9313C0A2E3B0E0E2E3F0E0C9
:101800008081482F8B81282F30E081E090E0022EEC
:1018100002C0880F991F0A94E2F784278C931982DB
:1018200002C082E0898389810F900F900F900F9002
:101830000F90CF91DF910895DF93CF93CDB7DEB7AF
:1018400027970FB6F894DEBF0FBECDBF8A836B8398
:101850005D834C8319828C819D81009709F47DC042
:101860008A81843008F076C08B81883008F072C09D
:101870008A81282F30E03F832E834E815F81413063
:10188000510559F18E819F818230910534F42E816A
:101890003F812115310569F05BC04E815F81423087
:1018A000510579F18E819F818330910509F43DC006
:1018B0004FC0E9E3F0E08081282F30E08B81882F52
:1018C00090E0A90102C0559547958A95E2F7CA01B3
:1018D0008170EC81FD8180833BC0E6E3F0E0808194
:1018E000282F30E08B81882F90E0A90102C0559508
:1018F00047958A95E2F7CA018170EC81FD8180836A
:1019000027C0E3E3F0E08081282F30E08B81882F2F
:1019100090E0A90102C0559547958A95E2F7CA0162
:101920008170EC81FD81808313C0E0E3F0E0808171
:10193000282F30E08B81882F90E0A90102C05595B7
:1019400047958A95E2F7CA018170EC81FD81808319
:10195000198205C082E0898302C083E0898389817E
:1019600027960FB6F894DEBF0FBECDBFCF91DF91A3
:101970000895DF93CF9300D00F92CDB7DEB78A835F
:101980006B8319828A81843048F48B81883030F4EB
:101990008A816B8141E00E94860902C082E08983CE
:1019A00089810F900F900F90CF91DF910895DF9371
:1019B000CF9300D00F92CDB7DEB78A836B831982A5
:1019C0008A81843048F48B81883030F48A816B813D
:1019D00041E00E94710A02C082E0898389810F90F0
:1019E0000F900F90CF91DF910895DF93CF9300D0A8
:1019F0000F92CDB7DEB78A836B8319828A818430D8
:101A000048F48B81883030F48A816B8140E00E94F9
:101A1000710A02C082E0898389810F900F900F9034
:101A2000CF91DF910895DF93CF9300D00F92CDB780
:101A3000DEB78A836B8319828A81843040F48B817C
:101A4000883028F48A816B810E948E0B02C082E06C
:101A5000898389810F900F900F90CF91DF91089526
:101A6000DF93CF9300D00F92CDB7DEB78A836B831D
:101A700019828A81843070F48B81883058F48A818D
:101A80006B8140E00E9486098A816B8140E00E9460
:101A9000860902C082E0898389810F900F900F90A0
:101AA000CF91DF910895DF93CF9300D000D00F92B4
:101AB000CDB7DEB78A836B835D834C8319828A81BD
:101AC000843058F48B81883040F42C813D818A81A8
:101AD0006B81A9010E941C0C02C082E0898389816C
:101AE0000F900F900F900F900F90CF91DF9108956E
:101AF000DF93CF93CDB7DEB780916C01882331F4AB
:101B000080916C018F5F80936C0102C0109268011C
:101B1000CF91DF910895DF93CF93CDB7DEB780E00B
:101B200060E00E94B90C80E061E00E94B90C80E0A6
:101B300062E00E94B90C81E060E00E94B90C81E093
:101B400061E00E94B90C81E062E00E94B90C83E080
:101B500062E00E94300D0E94350888E79DE060E059
:101B60000E9416090E9419080E94E706CF91DF9192
:101B70000895DF93CF93CDB7DEB727970FB6F894CC
:101B8000DEBF0FBECDBF80916801882349F48091EC
:101B90006D01882329F080916D01813009F0F4C036
:101BA00080916801882319F481E080936D0181E0C0
:101BB00060E00E94F50C81E061E00E94F50C8091EC
:101BC0006D01282F30E03F832E838E819F818130ED
:101BD000910569F12E813F812230310509F4B1C0B0
:101BE0008E819F81009709F02FC180E060E00E9404
:101BF000D70C80E061E00E94F50C80E062E00E947A
:101C0000F50C1D820BC084EF91E00E94F5068091D7
:101C10006801882331F08D818F5F8D838D818A30BB
:101C200090F381E080936D0110926E010DC180915F
:101C30006801882309F03FC080916E01823081F1F4
:101C400081E062E00E94D70C1C8227C081E061E045
:101C50000E94D70C80E061E00E94D70C80E991E0FF
:101C60000E94F50681E061E00E94130D80E061E0D2
:101C70000E94130D88EC90E00E94F50681E061E07F
:101C80000E94D70C80E061E00E94D70C80E991E0CF
:101C90000E94F5068C818F5F8C838C818530B0F239
:101CA00081E080936E0182E080936D0180E062E0CC
:101CB0000E94D70C28C01B8223C080E061E00E94F4
:101CC000D70C80E991E00E94F50680E061E00E9477
:101CD000130D88EC90E00E94F50680E061E00E9420
:101CE000D70C80E991E00E94F50680916801882375
:101CF00021F481E080936E0106C08B818F5F8B831E
:101D00008B818530D0F280E061E00E94F50C81E0AB
:101D100061E00E94F50C80916E01882339F481E026
:101D200080936E0182E080936D018EC080916E0180
:101D3000823009F089C010926D0181E080936E01BC
:101D400083C080E060E00E94F50C80E061E00E94CA
:101D5000F50C80E062E00E94D70C1A820BC084EF81
:101D600091E00E94F50680916801882331F08A8114
:101D70008F5F8A838A818A3090F381E080936D013E
:101D800082E080936E0160C081E060E00E94D70C29
:101D900081E062E00E94F50C81E061E00E94F50CB8
:101DA00080E060E00E94F50C80E061E00E94F50CAC
:101DB00080E062E00E94D70C88E893E10E94F5067B
:101DC00080E062E00E94F50C198227C081E061E0AA
:101DD0000E94D70C80E061E00E94D70C80E991E07E
:101DE0000E94F50681E061E00E94130D80E061E051
:101DF0000E94130D88EC90E00E94F50681E061E0FE
:101E00000E94D70C80E061E00E94D70C80E991E04D
:101E10000E94F50689818F5F898389818530B0F2C0
:101E200080E061E00E94F50C81E061E00E94F50C29
:101E300081E062E00E94D70C81E0809368011092FB
:101E40006D0181E080936E0127960FB6F894DEBF96
:101E50000FBECDBFCF91DF910895DF93CF93CDB764
:101E6000DEB70E948B0D0E94B90DFDCF2F923F92DD
:101E70004F925F926F927F928F929F92AF92BF929A
:101E8000CF92DF92EF92FF920F931F93CF93DF9346
:101E9000CDB7DEB7CA1BDB0B0FB6F894DEBF0FBEA3
:101EA000CDBF09942A88398848885F846E847D84F0
:101EB0008C849B84AA84B984C884DF80EE80FD80F2
:101EC0000C811B81AA81B981CE0FD11D0FB6F89468
:101ED000DEBF0FBECDBFED0108953BD080F09F3730
:101EE00040F491110EF44DC060E070E080E89FE393
:101EF000089526F01B16611D711D811D01C01BC0B8
:101F0000882371F4772321F09850872B762F07C010
:101F1000662311F499270DC09051862B70E060E084
:101F20002AF09A95660F771F881FDAF7880F969523
:101F3000879597F908959F3F31F0915020F4879548
:101F400077956795B795880F911D9695879597F921
:101F5000089525D0A0F0BEE7B91788F4BB279F38B5
:101F600060F41616B11D672F782F8827985FF7CF7A
:101F7000869577956795B11D93959639C8F3089521
:101F8000E894BB2766277727CB0197F9089557FD7B
:101F90009058440F551F59F05F3F71F04795880FD7
:101FA00097FB991F61F09F3F79F08795089512166E
:101FB00013061406551FF2CF4695F1DF08C016161A
:101FC00017061806991FF1CF8695710561050894CB
:061FD0000895F894FFCF14
:101FD60000000000000000000001020203030303EA
:101FE60004040404040404040505050505050505A3
:101FF6000505050505050505060606060606060683
:10200600060606060606060606060606060606066A
:102016000606060606060606070707070707070752
:10202600070707070707070707070707070707073A
:10203600070707070707070707070707070707072A
:10204600070707070707070707070707070707071A
:102056000707070707070707080808080808080802
:1020660008080808080808080808080808080808EA
:1020760008080808080808080808080808080808DA
:1020860008080808080808080808080808080808CA
:1020960008080808080808080808080808080808BA
:1020A60008080808080808080808080808080808AA
:1020B600080808080808080808080808080808089A
:1020C600080808080808080808080808080808088A
:0A20D60008080808080808080100BF
:00000001FF
